:020000040800F2
:10000000980800209D0100086F040008670400089C
:100010006B040008110200084B0B000800000000F0
:100020000000000000000000000000007106000851
:100030006D03000800000000250500089507000872
:10004000B7010008B7010008B7010008B7010008B0
:10005000B7010008B7010008B7010008B7010008A0
:10006000B7010008B7010008B7010008B701000890
:10007000B7010008B7010008B7010008B701000880
:10008000B7010008B7010008B7010008B701000870
:10009000B7010008B7010008B7010008B701000860
:1000A000B7010008B7010008B7010008B701000850
:1000B000B7010008B7010008B7010008B701000840
:1000C000B7010008B7010008B7010008B701000830
:1000D000B70100081508000845080008ED080008E9
:1000E000B7010008B7010008B7010008B701000810
:1000F000B7010008B7010008B7010008B701000800
:10010000B7010008B7010008B7010008B7010008EF
:10011000B7010008B7010008B7010008B7010008DF
:10012000B7010008B7010008B7010008B7010008CF
:10013000B7010008B7010008B7010008B7010008BF
:10014000B7010008B7010008B7010008B7010008AF
:10015000B7010008B7010008B7010008B70100089F
:10016000B7010008B7010008B7010008B70100088F
:10017000B7010008B7010008B7010008B70100087F
:10018000B7010008B7010008DFF80CD000F02EF826
:1001900000480047191000089808002006488047CA
:1001A00006480047FEE7FEE7FEE7FEE7FEE7FEE75C
:1001B000FEE7FEE7FEE7FEE7AD070008890100085D
:1001C00030B50B46014600202022012409E021FA27
:1001D00002F59D4205D303FA02F5491B04FA02F524
:1001E0002844151EA2F10102F1DC30BD064C074D7A
:1001F00006E0E06840F0010394E8070098471034F7
:10020000AC42F6D3FFF7C4FF7C1200089C12000832
:1002100000BFFEE71CB50121042000F085F9402154
:100220000A4800F01AF901208DF8040040200090DF
:1002300001208DF8060000208DF805008DF80700DC
:100240006946024800F093F81CBD00000008024017
:100250002DE9FC4706460F4690469946002440216A
:100260002C4800F0F8F8142000F0B4FD4021294893
:1002700000F0F3F81E2000F0D5FD09E0022000F0A8
:10028000D1FD601CC4B20A2C02DD0120BDE8FC8750
:100290004021204800F0D6F80028EFD1002408E0E3
:1002A0000A2000F0BFFD601CC4B20A2C01DD012051
:1002B000ECE74021174800F0C5F80028F0D00025F1
:1002C00005E000F029F80DF80500681CC5B2052D01
:1002D000F7DB9DF800009DF8011008449DF802101E
:1002E00008449DF8031008449DF8041088420FD17B
:1002F0009DF8000030709DF8010038709DF80200F4
:1003000088F800009DF8030089F800000020BDE790
:100310000120BBE70008024070B5002520E0600620
:10032000040E00BF4021104800F08CF80028F9D1DD
:1003300000BF40210C4800F085F80028F9D040218A
:10034000094800F07FF810B11E2000F06BFD40213D
:10035000054800F077F808B144F00104681CC5B204
:10036000082DDCDB204670BD000802407047F0B568
:100370000A4600210023002400BF3DE0012505FAC4
:1003800001F3156805EA03049C4234D105684F0067
:100390000326BE40B543056015794E00B54006689A
:1003A000354305601579012D02D01579022D16D13E
:1003B00085684F000326BE40B543856055794E00E1
:1003C000B540866835438560456801268E40B54353
:1003D0004560456896798E40B6B235434560C5683C
:1003E0004F000326BE40B543C560D5794E00B540E9
:1003F000C6683543C560491C1029BFD3F0BDF0B5B0
:10040000002300244D07ED0E02FA05F3CE1000F193
:10041000200555F826504E07F70E0F26BE40B5436F
:10042000CF1000F1200646F82750CE1000F120052D
:1004300055F8265045EA0304CE1000F1200545F892
:100440002640F0BD0246002013690B400BB101208D
:1004500000E0002070474183704701837047426984
:100460004A404261704700BFFEE700BFFEE77047A9
:1004700070B5002100230F22C4781CB3174C2468E8
:1004800004F4E064C4F5E064C4F30721C1F104049A
:10049000E3B20A4144789C40E1B28478144021439D
:1004A0000C07210E0E4C05786155047804F01F05E9
:1004B0000124AC4005786D11AD0005F1E025C5F8CB
:1004C000004109E0047804F01F050124AC40054D0B
:1004D0000678761145F8264070BD00000CED00E06E
:1004E00000E400E080E100E002490143024A1160BB
:1004F000704700000000FA050CED00E010B5002880
:1005000007DA0A07140E054A00F00F031B1FD45424
:1005100003E00A07130E024A135410BD18ED00E061
:1005200000E400E07047000029B1064A1268024367
:10053000044B1A6004E0034A12688243014B1A60BC
:10054000704700003038024029B1064A1268024361
:10055000044B1A6004E0034A12688243014B1A609C
:10056000704700004038024029B1064A1268024331
:10057000044B1A6004E0034A12688243014B1A607C
:100580007047000044380240F0B5002100220024EA
:10059000022500260223324F3F6807F00C0121B1EB
:1005A000042905D0082937D105E02E4F076036E031
:1005B0002D4F076033E02A4F3F1F3F68C7F3805637
:1005C000274F3F1F3F6807F03F036EB1264FB7FB31
:1005D000F3F7DFF88CC0ACF1040CDCF800C0CCF30E
:1005E000881C07FB0CF40CE01E4FB7FBF3F7DFF899
:1005F00070C0ACF1040CDCF800C0CCF3881C07FB25
:100600000CF4174F3F1F3F68C7F301477F1C7D0065
:10061000B4FBF5F7076002E0124F076000BF00BFB0
:100620000F4F3F6807F0F0010909104F7A5C076827
:10063000D74047600A4F3F6807F4E051890A0B4FE3
:100640007A5C4768D7408760054F3F6807F4604190
:10065000490B064F7A5C4768D740C760F0BD000081
:10066000083802400024F40000127A000000002044
:10067000704700000CB500200190009034480068DD
:1006800040F480303249086000BF3148006800F40F
:10069000003000900198401C0190009818B9019812
:1006A000B0F5A04FF1D12A48006800F4003010B135
:1006B0000120009001E0002000900098012846D120
:1006C00023484030006840F08050214940310860A4
:1006D0002048006840F440401E4908601C4808302B
:1006E00000681B49083108600846006840F4004073
:1006F00008600846006840F4A05008601648091FCA
:100700000860081F006840F08070091F086000BF83
:100710000F48006800F000700028F9D040F2057022
:100720000E4908600A480830006820F003000849B4
:10073000083108600846006840F00200086000BF09
:1007400003480830006800F00C000828F8D10CBD00
:10075000003802400070004008544007003C02404E
:1007600010B50446601EB0F1807F01D3012010BD9A
:10077000601E4FF0E02148610F214FF0FF30FFF77E
:10078000BDFE00204FF0E0218861072008610020B5
:10079000EDE700000448006820B103480068401EEF
:1007A00001490860704700002C00002010B5154872
:1007B000006840F47000134908601348006840F076
:1007C00001001149086000200F49083108600E48F7
:1007D00000680E4908400C4908600D48091D086072
:1007E000081F006820F48020091F086000200649C7
:1007F0000C310860FFF73EFF4FF00060014980397F
:10080000086010BD88ED00E000380240FFFFF6FEF2
:100810001030002410B540F22551084800F0D2F8FD
:10082000012809D1054800F087F90549086040F220
:100830002551024800F09EF810BD00000010014054
:100840005000002010B540F22551224800F0BAF8BF
:10085000012839D11F4800F06FF91F491F4A12685B
:1008600088541E480068401C1C49086008460068FF
:10087000401E1949085C232826D1087800F084FA24
:100880000A2117A000F090FA1349487800F07CFA8A
:100890000A2113A000F088FA0F49887800F074FA52
:1008A0000A210FA000F080FA0B49C87800F06CFA1A
:1008B0000A210BA000F078FA0749087900F064FAE1
:1008C0000A2107A000F070FA40F22551014800F01B
:1008D00051F810BD004400408C0300207800002037
:1008E00068656C6C6F2050430D0A000010B540F233
:1008F00025511A4800F066F801282DD1174800F05C
:100900001BF91749087008460078FF2802D100201B
:1009100014490860124800781349124A1268885432
:1009200010480068401C0F49086008460068092804
:100930000DD10D48C0780C49897840EA01200B4957
:10094000086000200749086001200949086040F25A
:100950002551024800F00EF810BD0000004800408C
:10096000840000207C00002096030020300000203E
:100970008000002010B50022002340F66A14A14236
:1009800000D100BF0A1201249440A3B2DC430480CA
:1009900010BD21B1828942F40052828104E0828933
:1009A0004DF6FF731A408281704702460020B1F570
:1009B000007F00D100BF13880B400BB1012000E085
:1009C0000020704770B50246002400230025002057
:1009D00040F66A16B14200D100BFC1F3421501F0E2
:1009E0001F03012606FA03F3012D02D19689334035
:1009F00006E0022D02D1168A334001E0968A334088
:100A00000C12012606FA04F41688344013B10CB116
:100A1000012000E0002070BDF0B503460024002650
:100A20000025002040F66A17B94200D100BF1846E1
:100A3000C1F3421401F01F06012707FA06F5012C45
:100A400001D10C3004E0022C01D1103000E0143050
:100A50001AB107682F43076002E00768AF430760D9
:100A6000F0BD00002DE9FF4705460E460024A146D3
:100A700000BFA046B08900B100BF2C8A24F44054C6
:100A8000F08804432C82AC8941F20C608443B08826
:100A900031890843718908430443AC81AC8A24F44A
:100AA0004074B0890443AC826846FFF76DFD20486E
:100AB000854202D01F48854202D1DDF80C9001E04A
:100AC000DDF80890A88900F4004040B109EBC900A6
:100AD00000EB091031684900B0FBF1F707E009EBC2
:100AE000C90000EB091031688900B0FBF1F7642000
:100AF000B7FBF0F004012009642101FB1078A889FC
:100B000000F4004040B1322000EBC800B0FBF1F02F
:100B100000F00700044308E0322000EB08106421D5
:100B2000B0FBF1F000F00F0004432C81BDE8FF871B
:100B3000001001400014014001468888C0F30800FD
:100B40007047C1F308028280704700BFFEE70000D3
:100B50000FB4054B10B503A9044A029800F018F829
:100B600010BC5DF814FB0000C30D000888000020D5
:100B700002E008C8121F08C1002AFAD17047704766
:100B8000002001E001C1121F002AFBD170470000C4
:100B90002DE9FF4F89B09B460446002506E0252835
:100BA0000BD05A460B999047641C6D1C2078002886
:100BB000F5D10DB02846BDE8F08F0027B8460122D8
:100BC000474900E0074314F8013F203B02FA03F0D5
:100BD0000842F7D120782E2819D114F8010F47F0D8
:100BE00004072A280ED06FF02F022078A0F13001E0
:100BF00009290CD808EB880102EB410100EB010840
:100C0000641CF2E70A98641C50F8048B0A90207860
:100C10000028CED0642808D0692806D075281ED0B8
:100C20005A460B9990476D1C58E00A994FF00A09F3
:100C300001C90A91002802DA40422D2102E039055B
:100C400004D52B218DF82010012103E0F90704D0F1
:100C50002021F7E78A4608AE0DE00021FAE70A995D
:100C60004FF00A0901C90A91F7E74946FFF7A8FAC8
:100C7000303106F8011D0028F7D1ADEB060000F178
:100C80002009780701D44FF00108C84502DDA8EB20
:100C9000090000E000208046002706E008A85A4628
:100CA000C05D0B9990476D1C7F1C5745F6DB04E037
:100CB00030205A460B9990476D1CB8F10001A8F1FD
:100CC0000108F5DC05E016F8010B5A460B99904730
:100CD0006D1CB9F10001A9F10109F4DC641C65E7A0
:100CE0000928010010B588B0044601210846FFF725
:100CF0001BFC4FF4C060069002208DF81C00002001
:100D00008DF81F0006A91E48FFF731FB07220921B5
:100D10001B48FFF774FB07220A211948FFF76FFBF6
:100D200001211020FFF720FC02940020ADF80C00F8
:100D3000ADF81000ADF80E00ADF814000C20ADF8C1
:100D4000120002A90F48FFF78DFE012240F2255143
:100D50000C48FFF761FE25208DF8040002208DF875
:100D600005008DF8060001208DF8070001A8FFF7A7
:100D70007FFB01210348FFF70CFE08B010BD000007
:100D8000000002400010014010B5044600BF802161
:100D90000448FFF70AFE0128F9D1A1B20148FFF784
:100DA000D0FE10BD0010014070B505460E4600246F
:100DB00000BF03E0285DFFF7E7FF641CB442F9DBE6
:100DC00070BD70B504460D46E0B2FFF7DDFF20466A
:100DD00070BD000070B504464FF47A7060430E4950
:100DE00008600E4800680E49B0FBF1F52846FFF791
:100DF000B7FC0121881EFFF781FB00BF0648006891
:100E00000028FBD14FF0E020006920F001004FF0F6
:100E1000E021086170BD00002C00002018000020B7
:100E200040420F0070B504460B4804600B48006850
:100E30000B49B0FBF1F52846FFF792FC00BF0648CE
:100E400000680028FBD14FF0E020006920F001008D
:100E50004FF0E021086170BD2C0000201800002038
:100E600040420F0010B501210D48FFF7EBFAA8B979
:100E70001420FFF7AFFF01210948FFF7E3FA40B95B
:100E800000BF01210648FFF7DDFA0028F9D0012054
:100E900010BD1420FFF79EFF0020F9E70020F7E7C0
:100EA0000000024010B504210D48FFF7CBFAA8B9A5
:100EB0001420FFF78FFF04210948FFF7C3FA40B958
:100EC00000BF04210648FFF7BDFA0028F9D0012031
:100ED00010BD1420FFF77EFF0020F9E70020F7E7A0
:100EE0000010024010B508210D48FFF7ABFAA8B971
:100EF0001420FFF76FFF08210948FFF7A3FA40B954
:100F000000BF08210648FFF79DFA0028F9D001200C
:100F100010BD1420FFF75EFF0020F9E70020F7E77F
:100F20000010024010B510210D48FFF78BFAA8B948
:100F30001420FFF74FFF10210948FFF783FA40B94B
:100F400000BF10210648FFF77DFA0028F9D00120E4
:100F500010BD1420FFF73EFF0020F9E70020F7E75F
:100F6000001002401CB501211020FFF7DDFA00201F
:100F70008DF8040001208DF807001C20009002204D
:100F80008DF8050069460B48FFF7F1F90121084685
:100F9000FFF7CAFA00208DF8040001208DF8070041
:100FA000009002208DF8050069460348FFF7DFF93D
:100FB0001CBD000000100240000002401CB50121D1
:100FC0002020FFF7B1FA01208DF8040000208DF8F1
:100FD00006004FF4E060009002208DF8050069469D
:100FE0000B48FFF7C4F901211020FFF79DFA0120FB
:100FF0008DF8040000208DF806004FF4C0400090EA
:1010000002208DF8050069460248FFF7B0F91CBDC3
:1010100000140240001002404FF4A060FFF764FA91
:101020004FF41650FFF75EFE4FF4165000F0D6F85E
:10103000FFF7F0F8FFF796FFFFF7C0FF4FF480616E
:101040005348FFF70AFA4FF400715148FFF705FAC9
:101050004FF400514F48FFF700FA4FF480414D48DC
:10106000FFF7FBF993E04C4B4C4A4D494D48FFF7D5
:10107000EFF84FF4FA70FFF7ADFE4948027849489F
:10108000017849A0FFF764FD464800784A49087096
:101090004448007800F092F8FFF7E4FE01281AD1E6
:1010A00041023B48FFF7DBF9434800783C2803DB6B
:1010B0004148007846286ADD4FF480713448FFF7D4
:1010C000CCF94FF47A70FFF785FE4FF48071304809
:1010D000FFF7C1F95BE0FFF7E5FE01281AD18102B5
:1010E0002B48FFF7BCF934480078462803DB324828
:1010F000007850284BDD4FF480712548FFF7ADF99B
:101100004FF47A70FFF766FE4FF480712048FFF7C6
:10111000A2F93CE0FFF7E6FE01281AD141031D4881
:10112000FFF79DF924480078502803DB2248007817
:101130005A282CDD4FF480711548FFF78EF94FF4D3
:101140007A70FFF747FE4FF480711148FFF783F97B
:101150001DE0FFF7E7FE012819D181030D48FFF7D5
:101160007EF9154800785A2803DB13480078642874
:101170000DDD4FF480710648FFF76FF94FF47A7078
:10118000FFF728FE4FF480710148FFF764F96AE722
:101190000014024000100240140000201100002042
:1011A0001300002010000020092068756D692025BB
:1011B000642E2564200000001200002010B50446B3
:1011C00000BF80210448FFF7F0FB0128F9D1214638
:1011D0000148FFF7B6FC10BD0044004010B588B0D0
:1011E000044601210846FFF79FF90C2006900220D3
:1011F0008DF81C0000208DF81F0006A91D48FFF780
:10120000B6F8072202211B48FFF7F9F8072203214D
:101210001848FFF7F4F801214804FFF795F9029404
:101220000020ADF80C00ADF81000ADF80E00ADF8E0
:1012300014000C20ADF8120002A90F48FFF712FCB1
:10124000012240F225510C48FFF7E6FB26208DF8DD
:10125000040002208DF805008DF8060001208DF8AD
:10126000070001A8FFF704F901210348FFF791FBEC
:1012700008B010BD00000240004400409C1200086D
:10128000000000208C000000700B000828130008EC
:101290008C0000200C080000800B000800000000FB
:1012A000010203040102030406070809000000000C
:1012B00000000000007A030A0000000000000000A7
:1012C00001020304060708090000000000000000F6
:1012D000000000000000000000000000000000000E
:1012E00000000000000000000000000000000000FE
:1012F00000000000000000000000000000000000EE
:1013000000000000000000000000000000000000DD
:1013100000000000000000000000000000000000CD
:081320000000000000000000C5
:040000050800018965
:00000001FF
